{
    "_format": "hh-sol-artifact-1",
    "contractName": "Lottery",
    "sourceName": "contracts/Lottery.sol",
    "abi": [
        {
            "inputs": [],
            "stateMutability": "nonpayable",
            "type": "constructor"
        },
        {
            "anonymous": false,
            "inputs": [
                {
                    "indexed": true,
                    "internalType": "address",
                    "name": "previousOwner",
                    "type": "address"
                },
                {
                    "indexed": true,
                    "internalType": "address",
                    "name": "newOwner",
                    "type": "address"
                }
            ],
            "name": "OwnershipTransferred",
            "type": "event"
        },
        {
            "inputs": [],
            "name": "enterLottery",
            "outputs": [],
            "stateMutability": "payable",
            "type": "function"
        },
        {
            "inputs": [],
            "name": "getPlayers",
            "outputs": [
                {
                    "internalType": "address[]",
                    "name": "",
                    "type": "address[]"
                }
            ],
            "stateMutability": "view",
            "type": "function"
        },
        {
            "inputs": [],
            "name": "owner",
            "outputs": [
                {
                    "internalType": "address",
                    "name": "",
                    "type": "address"
                }
            ],
            "stateMutability": "view",
            "type": "function"
        },
        {
            "inputs": [],
            "name": "pickWinner",
            "outputs": [],
            "stateMutability": "nonpayable",
            "type": "function"
        },
        {
            "inputs": [],
            "name": "renounceOwnership",
            "outputs": [],
            "stateMutability": "nonpayable",
            "type": "function"
        },
        {
            "inputs": [
                {
                    "internalType": "address",
                    "name": "newOwner",
                    "type": "address"
                }
            ],
            "name": "transferOwnership",
            "outputs": [],
            "stateMutability": "nonpayable",
            "type": "function"
        }
    ],
    "bytecode": "0x608060405234801561001057600080fd5b5061002d61002261003260201b60201c565b61003a60201b60201c565b6100fe565b600033905090565b60008060009054906101000a900473ffffffffffffffffffffffffffffffffffffffff169050816000806101000a81548173ffffffffffffffffffffffffffffffffffffffff021916908373ffffffffffffffffffffffffffffffffffffffff1602179055508173ffffffffffffffffffffffffffffffffffffffff168173ffffffffffffffffffffffffffffffffffffffff167f8be0079c531659141344cd1fd0a4f28419497f9722a3daafe3b4186f6b6457e060405160405180910390a35050565b610bd68061010d6000396000f3fe6080604052600436106100555760003560e01c80635d495aea1461005a578063715018a6146100715780638b5b9ccc146100885780638da5cb5b146100b3578063c1af5785146100de578063f2fde38b146100e8575b600080fd5b34801561006657600080fd5b5061006f610111565b005b34801561007d57600080fd5b506100866102dd565b005b34801561009457600080fd5b5061009d610365565b6040516100aa91906109a5565b60405180910390f35b3480156100bf57600080fd5b506100c86103f3565b6040516100d5919061098a565b60405180910390f35b6100e661041c565b005b3480156100f457600080fd5b5061010f600480360381019061010a919061074b565b610495565b005b61011961058d565b73ffffffffffffffffffffffffffffffffffffffff166101376103f3565b73ffffffffffffffffffffffffffffffffffffffff161461018d576040517f08c379a0000000000000000000000000000000000000000000000000000000008152600401610184906109e7565b60405180910390fd5b600060028054905061019d610595565b6101a79190610b09565b9050600281815481106101e3577f4e487b7100000000000000000000000000000000000000000000000000000000600052603260045260246000fd5b9060005260206000200160009054906101000a900473ffffffffffffffffffffffffffffffffffffffff1673ffffffffffffffffffffffffffffffffffffffff166108fc479081150290604051600060405180830381858888f19350505050158015610253573d6000803e3d6000fd5b50600067ffffffffffffffff811115610295577f4e487b7100000000000000000000000000000000000000000000000000000000600052604160045260246000fd5b6040519080825280602002602001820160405280156102c35781602001602082028036833780820191505090505b50600290805190602001906102d992919061068f565b5050565b6102e561058d565b73ffffffffffffffffffffffffffffffffffffffff166103036103f3565b73ffffffffffffffffffffffffffffffffffffffff1614610359576040517f08c379a0000000000000000000000000000000000000000000000000000000008152600401610350906109e7565b60405180910390fd5b61036360006105cb565b565b606060028054806020026020016040519081016040528092919081815260200182805480156103e957602002820191906000526020600020905b8160009054906101000a900473ffffffffffffffffffffffffffffffffffffffff1673ffffffffffffffffffffffffffffffffffffffff168152602001906001019080831161039f575b5050505050905090565b60008060009054906101000a900473ffffffffffffffffffffffffffffffffffffffff16905090565b662386f26fc1000034101561043057600080fd5b6002339080600181540180825580915050600190039060005260206000200160009091909190916101000a81548173ffffffffffffffffffffffffffffffffffffffff021916908373ffffffffffffffffffffffffffffffffffffffff160217905550565b61049d61058d565b73ffffffffffffffffffffffffffffffffffffffff166104bb6103f3565b73ffffffffffffffffffffffffffffffffffffffff1614610511576040517f08c379a0000000000000000000000000000000000000000000000000000000008152600401610508906109e7565b60405180910390fd5b600073ffffffffffffffffffffffffffffffffffffffff168173ffffffffffffffffffffffffffffffffffffffff161415610581576040517f08c379a0000000000000000000000000000000000000000000000000000000008152600401610578906109c7565b60405180910390fd5b61058a816105cb565b50565b600033905090565b6000444260026040516020016105ad93929190610951565b6040516020818303038152906040528051906020012060001c905090565b60008060009054906101000a900473ffffffffffffffffffffffffffffffffffffffff169050816000806101000a81548173ffffffffffffffffffffffffffffffffffffffff021916908373ffffffffffffffffffffffffffffffffffffffff1602179055508173ffffffffffffffffffffffffffffffffffffffff168173ffffffffffffffffffffffffffffffffffffffff167f8be0079c531659141344cd1fd0a4f28419497f9722a3daafe3b4186f6b6457e060405160405180910390a35050565b828054828255906000526020600020908101928215610708579160200282015b828111156107075782518260006101000a81548173ffffffffffffffffffffffffffffffffffffffff021916908373ffffffffffffffffffffffffffffffffffffffff160217905550916020019190600101906106af565b5b5090506107159190610719565b5090565b5b8082111561073257600081600090555060010161071a565b5090565b60008135905061074581610b89565b92915050565b60006020828403121561075d57600080fd5b600061076b84828501610736565b91505092915050565b600061078083836107a4565b60208301905092915050565b600061079883836107c2565b60208301905092915050565b6107ad81610aa9565b82525050565b6107bc81610aa9565b82525050565b6107cb81610aa9565b82525050565b60006107dc82610a2c565b6107e68185610a5c565b93506107f183610a07565b8060005b838110156108225781516108098882610774565b975061081483610a42565b9250506001810190506107f5565b5085935050505092915050565b600061083a82610a37565b6108448185610a6d565b935061084f83610a17565b8060005b838110156108875761086482610b69565b61086e888261078c565b975061087983610a4f565b925050600181019050610853565b5085935050505092915050565b60006108a1602683610a78565b91507f4f776e61626c653a206e6577206f776e657220697320746865207a65726f206160008301527f64647265737300000000000000000000000000000000000000000000000000006020830152604082019050919050565b6000610907602083610a78565b91507f4f776e61626c653a2063616c6c6572206973206e6f7420746865206f776e65726000830152602082019050919050565b61094b61094682610adb565b610aff565b82525050565b600061095d828661093a565b60208201915061096d828561093a565b60208201915061097d828461082f565b9150819050949350505050565b600060208201905061099f60008301846107b3565b92915050565b600060208201905081810360008301526109bf81846107d1565b905092915050565b600060208201905081810360008301526109e081610894565b9050919050565b60006020820190508181036000830152610a00816108fa565b9050919050565b6000819050602082019050919050565b60008190508160005260206000209050919050565b600081519050919050565b600081549050919050565b6000602082019050919050565b6000600182019050919050565b600082825260208201905092915050565b600081905092915050565b600082825260208201905092915050565b600073ffffffffffffffffffffffffffffffffffffffff82169050919050565b6000610ab482610abb565b9050919050565b600073ffffffffffffffffffffffffffffffffffffffff82169050919050565b6000819050919050565b6000610af8610af383610b7c565b610a89565b9050919050565b6000819050919050565b6000610b1482610adb565b9150610b1f83610adb565b925082610b2f57610b2e610b3a565b5b828206905092915050565b7f4e487b7100000000000000000000000000000000000000000000000000000000600052601260045260246000fd5b6000610b758254610ae5565b9050919050565b60008160001c9050919050565b610b9281610aa9565b8114610b9d57600080fd5b5056fea26469706673582212205acb21a753e327dd845cf920251e537eec8a8b628f2d13b637ed26843873fe5864736f6c63430008000033",
    "linkReferences": {},
    "deployedLinkReferences": {}
}