{
  "_format": "hh-sol-artifact-1",
  "contractName": "RollswapPair",
  "sourceName": "contracts/RollswapPair.sol",
  "abi": [
    {
      "inputs": [
        {
          "internalType": "contract IERC20Metadata",
          "name": "_token0",
          "type": "address"
        },
        {
          "internalType": "contract IERC20Metadata",
          "name": "_token1",
          "type": "address"
        }
      ],
      "stateMutability": "nonpayable",
      "type": "constructor"
    },
    {
      "anonymous": false,
      "inputs": [
        {
          "indexed": false,
          "internalType": "address",
          "name": "sender",
          "type": "address"
        },
        {
          "indexed": false,
          "internalType": "uint256",
          "name": "lpTokenAmount",
          "type": "uint256"
        }
      ],
      "name": "Burn",
      "type": "event"
    },
    {
      "anonymous": false,
      "inputs": [
        {
          "indexed": false,
          "internalType": "address",
          "name": "sender",
          "type": "address"
        },
        {
          "indexed": false,
          "internalType": "uint256",
          "name": "token0amount",
          "type": "uint256"
        },
        {
          "indexed": false,
          "internalType": "uint256",
          "name": "token1amount",
          "type": "uint256"
        }
      ],
      "name": "Mint",
      "type": "event"
    },
    {
      "anonymous": false,
      "inputs": [
        {
          "indexed": true,
          "internalType": "address",
          "name": "sender",
          "type": "address"
        },
        {
          "indexed": false,
          "internalType": "uint256",
          "name": "amount0in",
          "type": "uint256"
        },
        {
          "indexed": false,
          "internalType": "uint256",
          "name": "amount1in",
          "type": "uint256"
        },
        {
          "indexed": false,
          "internalType": "uint256",
          "name": "amount0out",
          "type": "uint256"
        },
        {
          "indexed": false,
          "internalType": "uint256",
          "name": "amount1out",
          "type": "uint256"
        },
        {
          "indexed": true,
          "internalType": "address",
          "name": "to",
          "type": "address"
        }
      ],
      "name": "Swap",
      "type": "event"
    },
    {
      "inputs": [
        {
          "internalType": "uint256",
          "name": "_token0amount",
          "type": "uint256"
        },
        {
          "internalType": "uint256",
          "name": "_token1amount",
          "type": "uint256"
        }
      ],
      "name": "addLiquidity",
      "outputs": [],
      "stateMutability": "nonpayable",
      "type": "function"
    },
    {
      "inputs": [],
      "name": "getLPtokenAmount",
      "outputs": [
        {
          "internalType": "uint256",
          "name": "",
          "type": "uint256"
        }
      ],
      "stateMutability": "view",
      "type": "function"
    },
    {
      "inputs": [],
      "name": "getReserve",
      "outputs": [
        {
          "internalType": "uint256",
          "name": "",
          "type": "uint256"
        },
        {
          "internalType": "uint256",
          "name": "",
          "type": "uint256"
        }
      ],
      "stateMutability": "view",
      "type": "function"
    },
    {
      "inputs": [],
      "name": "lpToken",
      "outputs": [
        {
          "internalType": "contract RollswapERC20",
          "name": "",
          "type": "address"
        }
      ],
      "stateMutability": "view",
      "type": "function"
    },
    {
      "inputs": [
        {
          "internalType": "uint256",
          "name": "_lpTokenAmount",
          "type": "uint256"
        }
      ],
      "name": "removeLiquidity",
      "outputs": [],
      "stateMutability": "nonpayable",
      "type": "function"
    },
    {
      "inputs": [
        {
          "internalType": "uint256",
          "name": "_amountIn",
          "type": "uint256"
        }
      ],
      "name": "swapToken0forToken1",
      "outputs": [],
      "stateMutability": "nonpayable",
      "type": "function"
    },
    {
      "inputs": [],
      "name": "token0",
      "outputs": [
        {
          "internalType": "contract IERC20Metadata",
          "name": "",
          "type": "address"
        }
      ],
      "stateMutability": "view",
      "type": "function"
    },
    {
      "inputs": [],
      "name": "token1",
      "outputs": [
        {
          "internalType": "contract IERC20Metadata",
          "name": "",
          "type": "address"
        }
      ],
      "stateMutability": "view",
      "type": "function"
    }
  ],
  "bytecode": "0x60806040523480156200001157600080fd5b5060405162004cba38038062004cba83398181016040528101906200003791906200052b565b600160008190555081600160006101000a81548173ffffffffffffffffffffffffffffffffffffffff021916908373ffffffffffffffffffffffffffffffffffffffff16021790555080600260006101000a81548173ffffffffffffffffffffffffffffffffffffffff021916908373ffffffffffffffffffffffffffffffffffffffff160217905550620000d16200011960201b60201c565b600360006101000a81548173ffffffffffffffffffffffffffffffffffffffff021916908373ffffffffffffffffffffffffffffffffffffffff160217905550505062000994565b600080600160009054906101000a900473ffffffffffffffffffffffffffffffffffffffff1673ffffffffffffffffffffffffffffffffffffffff166306fdde036040518163ffffffff1660e01b815260040160006040518083038186803b1580156200018557600080fd5b505afa1580156200019a573d6000803e3d6000fd5b505050506040513d6000823e3d601f19601f82011682018060405250810190620001c591906200056c565b600260009054906101000a900473ffffffffffffffffffffffffffffffffffffffff1673ffffffffffffffffffffffffffffffffffffffff166306fdde036040518163ffffffff1660e01b815260040160006040518083038186803b1580156200022e57600080fd5b505afa15801562000243573d6000803e3d6000fd5b505050506040513d6000823e3d601f19601f820116820180604052508101906200026e91906200056c565b6040516020016200028192919062000784565b60405160208183030381529060405290506000600160009054906101000a900473ffffffffffffffffffffffffffffffffffffffff1673ffffffffffffffffffffffffffffffffffffffff166395d89b416040518163ffffffff1660e01b815260040160006040518083038186803b158015620002fd57600080fd5b505afa15801562000312573d6000803e3d6000fd5b505050506040513d6000823e3d601f19601f820116820180604052508101906200033d91906200056c565b600260009054906101000a900473ffffffffffffffffffffffffffffffffffffffff1673ffffffffffffffffffffffffffffffffffffffff166395d89b416040518163ffffffff1660e01b815260040160006040518083038186803b158015620003a657600080fd5b505afa158015620003bb573d6000803e3d6000fd5b505050506040513d6000823e3d601f19601f82011682018060405250810190620003e691906200056c565b604051602001620003f992919062000742565b60405160208183030381529060405290508181600160009054906101000a900473ffffffffffffffffffffffffffffffffffffffff16600260009054906101000a900473ffffffffffffffffffffffffffffffffffffffff16604051620004609062000494565b6200046f9493929190620007d3565b604051809103906000f0801580156200048c573d6000803e3d6000fd5b509250505090565b61236c806200294e83390190565b6000620004b9620004b38462000862565b6200082e565b905082815260208101848484011115620004d257600080fd5b620004df84828562000904565b509392505050565b600081519050620004f8816200097a565b92915050565b600082601f8301126200051057600080fd5b815162000522848260208601620004a2565b91505092915050565b600080604083850312156200053f57600080fd5b60006200054f85828601620004e7565b92505060206200056285828601620004e7565b9150509250929050565b6000602082840312156200057f57600080fd5b600082015167ffffffffffffffff8111156200059a57600080fd5b620005a884828501620004fe565b91505092915050565b620005bc81620008bc565b82525050565b6000620005cf8262000895565b620005db8185620008a0565b9350620005ed81856020860162000904565b620005f88162000969565b840191505092915050565b6000620006108262000895565b6200061c8185620008b1565b93506200062e81856020860162000904565b80840191505092915050565b600062000649600483620008b1565b91507f526f6c6c000000000000000000000000000000000000000000000000000000006000830152600482019050919050565b60006200068b600983620008b1565b91507f204c5020546f6b656e00000000000000000000000000000000000000000000006000830152600982019050919050565b6000620006cd600883620008b1565b91507f526f6c6c737761700000000000000000000000000000000000000000000000006000830152600882019050919050565b60006200070f600183620008b1565b91507f2f000000000000000000000000000000000000000000000000000000000000006000830152600182019050919050565b60006200074f826200063a565b91506200075d828562000603565b91506200076a8262000700565b915062000778828462000603565b91508190509392505050565b60006200079182620006be565b91506200079f828562000603565b9150620007ac8262000700565b9150620007ba828462000603565b9150620007c7826200067c565b91508190509392505050565b60006080820190508181036000830152620007ef8187620005c2565b90508181036020830152620008058186620005c2565b9050620008166040830185620005b1565b620008256060830184620005b1565b95945050505050565b6000604051905081810181811067ffffffffffffffff821117156200085857620008576200093a565b5b8060405250919050565b600067ffffffffffffffff82111562000880576200087f6200093a565b5b601f19601f8301169050602081019050919050565b600081519050919050565b600082825260208201905092915050565b600081905092915050565b6000620008c982620008e4565b9050919050565b6000620008dd82620008bc565b9050919050565b600073ffffffffffffffffffffffffffffffffffffffff82169050919050565b60005b838110156200092457808201518184015260208101905062000907565b8381111562000934576000848401525b50505050565b7f4e487b7100000000000000000000000000000000000000000000000000000000600052604160045260246000fd5b6000601f19601f8301169050919050565b6200098581620008d0565b81146200099157600080fd5b50565b611faa80620009a46000396000f3fe608060405234801561001057600080fd5b50600436106100885760003560e01c80639c8f9f231161005b5780639c8f9f23146101045780639cd441da14610120578063aebaa9151461013c578063d21220a71461015a57610088565b80630dfe16811461008d57806316731218146100ab57806359bf5d39146100c75780635fcbd285146100e6575b600080fd5b610095610178565b6040516100a29190611b11565b60405180910390f35b6100c560048036038101906100c091906115c7565b61019e565b005b6100cf610339565b6040516100dd929190611ca4565b60405180910390f35b6100ee61049a565b6040516100fb9190611b2c565b60405180910390f35b61011e600480360381019061011991906115c7565b6104c0565b005b61013a60048036038101906101359190611619565b6105fe565b005b61014461073c565b6040516101519190611c89565b60405180910390f35b6101626107ee565b60405161016f9190611b11565b60405180910390f35b600160009054906101000a900473ffffffffffffffffffffffffffffffffffffffff1681565b600260005414156101e4576040517f08c379a00000000000000000000000000000000000000000000000000000000081526004016101db90611c49565b60405180910390fd5b60026000819055506000811161022f576040517f08c379a000000000000000000000000000000000000000000000000000000000815260040161022690611ba9565b60405180910390fd5b60008061023a610339565b9150915061028d333085600160009054906101000a900473ffffffffffffffffffffffffffffffffffffffff1673ffffffffffffffffffffffffffffffffffffffff16610814909392919063ffffffff16565b600061029a84848461089d565b90508181106102de576040517f08c379a00000000000000000000000000000000000000000000000000000000081526004016102d590611b69565b60405180910390fd5b61032b3382600260009054906101000a900473ffffffffffffffffffffffffffffffffffffffff1673ffffffffffffffffffffffffffffffffffffffff1661092a9092919063ffffffff16565b505050600160008190555050565b600080600160009054906101000a900473ffffffffffffffffffffffffffffffffffffffff1673ffffffffffffffffffffffffffffffffffffffff166370a08231306040518263ffffffff1660e01b81526004016103979190611a36565b60206040518083038186803b1580156103af57600080fd5b505afa1580156103c3573d6000803e3d6000fd5b505050506040513d601f19601f820116820180604052508101906103e791906115f0565b600260009054906101000a900473ffffffffffffffffffffffffffffffffffffffff1673ffffffffffffffffffffffffffffffffffffffff166370a08231306040518263ffffffff1660e01b81526004016104429190611a36565b60206040518083038186803b15801561045a57600080fd5b505afa15801561046e573d6000803e3d6000fd5b505050506040513d601f19601f8201168201806040525081019061049291906115f0565b915091509091565b600360009054906101000a900473ffffffffffffffffffffffffffffffffffffffff1681565b60026000541415610506576040517f08c379a00000000000000000000000000000000000000000000000000000000081526004016104fd90611c49565b60405180910390fd5b600260008190555060008061051a836109b0565b91509150600360009054906101000a900473ffffffffffffffffffffffffffffffffffffffff1673ffffffffffffffffffffffffffffffffffffffff16639dc29fac33856040518363ffffffff1660e01b815260040161057b929190611ab1565b600060405180830381600087803b15801561059557600080fd5b505af11580156105a9573d6000803e3d6000fd5b505050506105b8338383610c0b565b7fcc16f5dbb4873280815c1ee09dbd06736cffcc184412cf7a71a0fdb75d397ca533846040516105e9929190611ab1565b60405180910390a15050600160008190555050565b60026000541415610644576040517f08c379a000000000000000000000000000000000000000000000000000000000815260040161063b90611c49565b60405180910390fd5b6002600081905550610657338383610caa565b60006106638383610f43565b9050600360009054906101000a900473ffffffffffffffffffffffffffffffffffffffff1673ffffffffffffffffffffffffffffffffffffffff166340c10f1933836040518363ffffffff1660e01b81526004016106c2929190611ab1565b600060405180830381600087803b1580156106dc57600080fd5b505af11580156106f0573d6000803e3d6000fd5b505050507f4c209b5fc8ad50758f13e2e1088ba56a560dff690a1c6fef26394f4c03821c4f33848460405161072793929190611ada565b60405180910390a15060016000819055505050565b6000600360009054906101000a900473ffffffffffffffffffffffffffffffffffffffff1673ffffffffffffffffffffffffffffffffffffffff166370a08231336040518263ffffffff1660e01b81526004016107999190611a36565b60206040518083038186803b1580156107b157600080fd5b505afa1580156107c5573d6000803e3d6000fd5b505050506040513d601f19601f820116820180604052508101906107e991906115f0565b905090565b600260009054906101000a900473ffffffffffffffffffffffffffffffffffffffff1681565b610897846323b872dd60e01b85858560405160240161083593929190611a7a565b604051602081830303815290604052907bffffffffffffffffffffffffffffffffffffffffffffffffffffffff19166020820180517bffffffffffffffffffffffffffffffffffffffffffffffffffffffff8381831617835250505050611220565b50505050565b600080831180156108ae5750600082115b6108ed576040517f08c379a00000000000000000000000000000000000000000000000000000000081526004016108e490611c69565b60405180910390fd5b6000849050600083826109009190611d86565b9050600082866109109190611cff565b9050808261091e9190611d55565b93505050509392505050565b6109ab8363a9059cbb60e01b8484604051602401610949929190611ab1565b604051602081830303815290604052907bffffffffffffffffffffffffffffffffffffffffffffffffffffffff19166020820180517bffffffffffffffffffffffffffffffffffffffffffffffffffffffff8381831617835250505050611220565b505050565b6000806000600360009054906101000a900473ffffffffffffffffffffffffffffffffffffffff1673ffffffffffffffffffffffffffffffffffffffff166318160ddd6040518163ffffffff1660e01b815260040160206040518083038186803b158015610a1d57600080fd5b505afa158015610a31573d6000803e3d6000fd5b505050506040513d601f19601f82011682018060405250810190610a5591906115f0565b90506000600160009054906101000a900473ffffffffffffffffffffffffffffffffffffffff1673ffffffffffffffffffffffffffffffffffffffff166370a08231306040518263ffffffff1660e01b8152600401610ab49190611a36565b60206040518083038186803b158015610acc57600080fd5b505afa158015610ae0573d6000803e3d6000fd5b505050506040513d601f19601f82011682018060405250810190610b0491906115f0565b90506000600260009054906101000a900473ffffffffffffffffffffffffffffffffffffffff1673ffffffffffffffffffffffffffffffffffffffff166370a08231306040518263ffffffff1660e01b8152600401610b639190611a36565b60206040518083038186803b158015610b7b57600080fd5b505afa158015610b8f573d6000803e3d6000fd5b505050506040513d601f19601f82011682018060405250810190610bb391906115f0565b9050610bda83610bcc88856112e790919063ffffffff16565b6112fd90919063ffffffff16565b610bff84610bf189856112e790919063ffffffff16565b6112fd90919063ffffffff16565b94509450505050915091565b610c588383600160009054906101000a900473ffffffffffffffffffffffffffffffffffffffff1673ffffffffffffffffffffffffffffffffffffffff1661092a9092919063ffffffff16565b610ca58382600260009054906101000a900473ffffffffffffffffffffffffffffffffffffffff1673ffffffffffffffffffffffffffffffffffffffff1661092a9092919063ffffffff16565b505050565b600082118015610cba5750600081115b610cf9576040517f08c379a0000000000000000000000000000000000000000000000000000000008152600401610cf090611be9565b60405180910390fd5b81600160009054906101000a900473ffffffffffffffffffffffffffffffffffffffff1673ffffffffffffffffffffffffffffffffffffffff1663dd62ed3e85306040518363ffffffff1660e01b8152600401610d57929190611a51565b60206040518083038186803b158015610d6f57600080fd5b505afa158015610d83573d6000803e3d6000fd5b505050506040513d601f19601f82011682018060405250810190610da791906115f0565b10158015610e61575080600260009054906101000a900473ffffffffffffffffffffffffffffffffffffffff1673ffffffffffffffffffffffffffffffffffffffff1663dd62ed3e85306040518363ffffffff1660e01b8152600401610e0e929190611a51565b60206040518083038186803b158015610e2657600080fd5b505afa158015610e3a573d6000803e3d6000fd5b505050506040513d601f19601f82011682018060405250810190610e5e91906115f0565b10155b610ea0576040517f08c379a0000000000000000000000000000000000000000000000000000000008152600401610e9790611b89565b60405180910390fd5b610eef833084600160009054906101000a900473ffffffffffffffffffffffffffffffffffffffff1673ffffffffffffffffffffffffffffffffffffffff16610814909392919063ffffffff16565b610f3e833083600260009054906101000a900473ffffffffffffffffffffffffffffffffffffffff1673ffffffffffffffffffffffffffffffffffffffff16610814909392919063ffffffff16565b505050565b600080600360009054906101000a900473ffffffffffffffffffffffffffffffffffffffff1673ffffffffffffffffffffffffffffffffffffffff166318160ddd6040518163ffffffff1660e01b815260040160206040518083038186803b158015610fae57600080fd5b505afa158015610fc2573d6000803e3d6000fd5b505050506040513d601f19601f82011682018060405250810190610fe691906115f0565b9050600081141561100d5761100583856110009190611d86565b611313565b91505061121a565b6000600160009054906101000a900473ffffffffffffffffffffffffffffffffffffffff1673ffffffffffffffffffffffffffffffffffffffff166370a08231306040518263ffffffff1660e01b815260040161106a9190611a36565b60206040518083038186803b15801561108257600080fd5b505afa158015611096573d6000803e3d6000fd5b505050506040513d601f19601f820116820180604052508101906110ba91906115f0565b90506000600260009054906101000a900473ffffffffffffffffffffffffffffffffffffffff1673ffffffffffffffffffffffffffffffffffffffff166370a08231306040518263ffffffff1660e01b81526004016111199190611a36565b60206040518083038186803b15801561113157600080fd5b505afa158015611145573d6000803e3d6000fd5b505050506040513d601f19601f8201168201806040525081019061116991906115f0565b905060006111816002846112e790919063ffffffff16565b905060006111aa8361119c868a6112e790919063ffffffff16565b6112fd90919063ffffffff16565b905060006111c1828a61138d90919063ffffffff16565b905060006111fc6111db83866113a390919063ffffffff16565b6111ee868a6112e790919063ffffffff16565b6112fd90919063ffffffff16565b90506000878261120c9190611de0565b905080985050505050505050505b92915050565b6000611282826040518060400160405280602081526020017f5361666545524332303a206c6f772d6c6576656c2063616c6c206661696c65648152508573ffffffffffffffffffffffffffffffffffffffff166113b99092919063ffffffff16565b90506000815111156112e257808060200190518101906112a2919061159e565b6112e1576040517f08c379a00000000000000000000000000000000000000000000000000000000081526004016112d890611c29565b60405180910390fd5b5b505050565b600081836112f59190611d86565b905092915050565b6000818361130b9190611d55565b905092915050565b6000600382111561137a57819050600060016002846113329190611d55565b61133c9190611cff565b90505b818110156113745780915060028182856113599190611d55565b6113639190611cff565b61136d9190611d55565b905061133f565b50611388565b6000821461138757600190505b5b919050565b6000818361139b9190611cff565b905092915050565b600081836113b19190611de0565b905092915050565b60606113c884846000856113d1565b90509392505050565b606082471015611416576040517f08c379a000000000000000000000000000000000000000000000000000000000815260040161140d90611bc9565b60405180910390fd5b61141f856114e5565b61145e576040517f08c379a000000000000000000000000000000000000000000000000000000000815260040161145590611c09565b60405180910390fd5b6000808673ffffffffffffffffffffffffffffffffffffffff1685876040516114879190611a1f565b60006040518083038185875af1925050503d80600081146114c4576040519150601f19603f3d011682016040523d82523d6000602084013e6114c9565b606091505b50915091506114d98282866114f8565b92505050949350505050565b600080823b905060008111915050919050565b6060831561150857829050611558565b60008351111561151b5782518084602001fd5b816040517f08c379a000000000000000000000000000000000000000000000000000000000815260040161154f9190611b47565b60405180910390fd5b9392505050565b60008151905061156e81611f46565b92915050565b60008135905061158381611f5d565b92915050565b60008151905061159881611f5d565b92915050565b6000602082840312156115b057600080fd5b60006115be8482850161155f565b91505092915050565b6000602082840312156115d957600080fd5b60006115e784828501611574565b91505092915050565b60006020828403121561160257600080fd5b600061161084828501611589565b91505092915050565b6000806040838503121561162c57600080fd5b600061163a85828601611574565b925050602061164b85828601611574565b9150509250929050565b61165e81611e14565b82525050565b600061166f82611ccd565b6116798185611ce3565b9350611689818560208601611ea4565b80840191505092915050565b61169e81611e5c565b82525050565b6116ad81611e80565b82525050565b60006116be82611cd8565b6116c88185611cee565b93506116d8818560208601611ea4565b6116e181611f35565b840191505092915050565b60006116f9602783611cee565b91507f616d6f756e7453776170206d75737420626520736d616c6c6572207468616e2060008301527f72657365727665000000000000000000000000000000000000000000000000006020830152604082019050919050565b600061175f602583611cee565b91507f616c6c6f77616e6365206d7573742062652067726561746572207468616e206160008301527f6d6f756e740000000000000000000000000000000000000000000000000000006020830152604082019050919050565b60006117c5602183611cee565b91507f616d6f756e7453776170206d7573742062652067726561746572207468616e2060008301527f30000000000000000000000000000000000000000000000000000000000000006020830152604082019050919050565b600061182b602683611cee565b91507f416464726573733a20696e73756666696369656e742062616c616e636520666f60008301527f722063616c6c00000000000000000000000000000000000000000000000000006020830152604082019050919050565b6000611891602383611cee565b91507f546f6b656e20616d6f756e74206d75737420626520677265617465722074686160008301527f6e203000000000000000000000000000000000000000000000000000000000006020830152604082019050919050565b60006118f7601d83611cee565b91507f416464726573733a2063616c6c20746f206e6f6e2d636f6e74726163740000006000830152602082019050919050565b6000611937602a83611cee565b91507f5361666545524332303a204552433230206f7065726174696f6e20646964206e60008301527f6f742073756363656564000000000000000000000000000000000000000000006020830152604082019050919050565b600061199d601f83611cee565b91507f5265656e7472616e637947756172643a207265656e7472616e742063616c6c006000830152602082019050919050565b60006119dd601d83611cee565b91507f72657365727665206d757374206265206c6172676572207468616e20300000006000830152602082019050919050565b611a1981611e52565b82525050565b6000611a2b8284611664565b915081905092915050565b6000602082019050611a4b6000830184611655565b92915050565b6000604082019050611a666000830185611655565b611a736020830184611655565b9392505050565b6000606082019050611a8f6000830186611655565b611a9c6020830185611655565b611aa96040830184611a10565b949350505050565b6000604082019050611ac66000830185611655565b611ad36020830184611a10565b9392505050565b6000606082019050611aef6000830186611655565b611afc6020830185611a10565b611b096040830184611a10565b949350505050565b6000602082019050611b266000830184611695565b92915050565b6000602082019050611b4160008301846116a4565b92915050565b60006020820190508181036000830152611b6181846116b3565b905092915050565b60006020820190508181036000830152611b82816116ec565b9050919050565b60006020820190508181036000830152611ba281611752565b9050919050565b60006020820190508181036000830152611bc2816117b8565b9050919050565b60006020820190508181036000830152611be28161181e565b9050919050565b60006020820190508181036000830152611c0281611884565b9050919050565b60006020820190508181036000830152611c22816118ea565b9050919050565b60006020820190508181036000830152611c428161192a565b9050919050565b60006020820190508181036000830152611c6281611990565b9050919050565b60006020820190508181036000830152611c82816119d0565b9050919050565b6000602082019050611c9e6000830184611a10565b92915050565b6000604082019050611cb96000830185611a10565b611cc66020830184611a10565b9392505050565b600081519050919050565b600081519050919050565b600081905092915050565b600082825260208201905092915050565b6000611d0a82611e52565b9150611d1583611e52565b9250827fffffffffffffffffffffffffffffffffffffffffffffffffffffffffffffffff03821115611d4a57611d49611ed7565b5b828201905092915050565b6000611d6082611e52565b9150611d6b83611e52565b925082611d7b57611d7a611f06565b5b828204905092915050565b6000611d9182611e52565b9150611d9c83611e52565b9250817fffffffffffffffffffffffffffffffffffffffffffffffffffffffffffffffff0483118215151615611dd557611dd4611ed7565b5b828202905092915050565b6000611deb82611e52565b9150611df683611e52565b925082821015611e0957611e08611ed7565b5b828203905092915050565b6000611e1f82611e32565b9050919050565b60008115159050919050565b600073ffffffffffffffffffffffffffffffffffffffff82169050919050565b6000819050919050565b6000611e6782611e6e565b9050919050565b6000611e7982611e32565b9050919050565b6000611e8b82611e92565b9050919050565b6000611e9d82611e32565b9050919050565b60005b83811015611ec2578082015181840152602081019050611ea7565b83811115611ed1576000848401525b50505050565b7f4e487b7100000000000000000000000000000000000000000000000000000000600052601160045260246000fd5b7f4e487b7100000000000000000000000000000000000000000000000000000000600052601260045260246000fd5b6000601f19601f8301169050919050565b611f4f81611e26565b8114611f5a57600080fd5b50565b611f6681611e52565b8114611f7157600080fd5b5056fea26469706673582212202e2b5ce2c37563048e915565b693adda39cd34e6b6b8ed8cdc43a1f08d246d9864736f6c6343000800003360806040523480156200001157600080fd5b506040516200236c3803806200236c83398181016040528101906200003791906200031e565b8383620000596200004d6200011960201b60201c565b6200012160201b60201c565b816004908051906020019062000071929190620001e5565b5080600590805190602001906200008a929190620001e5565b50505081600660006101000a81548173ffffffffffffffffffffffffffffffffffffffff021916908373ffffffffffffffffffffffffffffffffffffffff16021790555080600760006101000a81548173ffffffffffffffffffffffffffffffffffffffff021916908373ffffffffffffffffffffffffffffffffffffffff160217905550505050506200053b565b600033905090565b60008060009054906101000a900473ffffffffffffffffffffffffffffffffffffffff169050816000806101000a81548173ffffffffffffffffffffffffffffffffffffffff021916908373ffffffffffffffffffffffffffffffffffffffff1602179055508173ffffffffffffffffffffffffffffffffffffffff168173ffffffffffffffffffffffffffffffffffffffff167f8be0079c531659141344cd1fd0a4f28419497f9722a3daafe3b4186f6b6457e060405160405180910390a35050565b828054620001f3906200048d565b90600052602060002090601f01602090048101928262000217576000855562000263565b82601f106200023257805160ff191683800117855562000263565b8280016001018555821562000263579182015b828111156200026257825182559160200191906001019062000245565b5b50905062000272919062000276565b5090565b5b808211156200029157600081600090555060010162000277565b5090565b6000620002ac620002a684620003f0565b620003bc565b905082815260208101848484011115620002c557600080fd5b620002d284828562000457565b509392505050565b600081519050620002eb8162000521565b92915050565b600082601f8301126200030357600080fd5b81516200031584826020860162000295565b91505092915050565b600080600080608085870312156200033557600080fd5b600085015167ffffffffffffffff8111156200035057600080fd5b6200035e87828801620002f1565b945050602085015167ffffffffffffffff8111156200037c57600080fd5b6200038a87828801620002f1565b93505060406200039d87828801620002da565b9250506060620003b087828801620002da565b91505092959194509250565b6000604051905081810181811067ffffffffffffffff82111715620003e657620003e5620004f2565b5b8060405250919050565b600067ffffffffffffffff8211156200040e576200040d620004f2565b5b601f19601f8301169050602081019050919050565b6000620004308262000437565b9050919050565b600073ffffffffffffffffffffffffffffffffffffffff82169050919050565b60005b83811015620004775780820151818401526020810190506200045a565b8381111562000487576000848401525b50505050565b60006002820490506001821680620004a657607f821691505b60208210811415620004bd57620004bc620004c3565b5b50919050565b7f4e487b7100000000000000000000000000000000000000000000000000000000600052602260045260246000fd5b7f4e487b7100000000000000000000000000000000000000000000000000000000600052604160045260246000fd5b6200052c8162000423565b81146200053857600080fd5b50565b611e21806200054b6000396000f3fe608060405234801561001057600080fd5b50600436106101165760003560e01c8063715018a6116100a2578063a457c2d711610071578063a457c2d7146102d1578063a9059cbb14610301578063d21220a714610331578063dd62ed3e1461034f578063f2fde38b1461037f57610116565b8063715018a61461026f5780638da5cb5b1461027957806395d89b41146102975780639dc29fac146102b557610116565b806323b872dd116100e957806323b872dd146101a5578063313ce567146101d557806339509351146101f357806340c10f191461022357806370a082311461023f57610116565b806306fdde031461011b578063095ea7b3146101395780630dfe16811461016957806318160ddd14610187575b600080fd5b61012361039b565b6040516101309190611a16565b60405180910390f35b610153600480360381019061014e91906114b3565b61042d565b60405161016091906119fb565b60405180910390f35b61017161044b565b60405161017e91906119e0565b60405180910390f35b61018f610471565b60405161019c9190611bb8565b60405180910390f35b6101bf60048036038101906101ba9190611464565b61047b565b6040516101cc91906119fb565b60405180910390f35b6101dd610573565b6040516101ea9190611bd3565b60405180910390f35b61020d600480360381019061020891906114b3565b61057c565b60405161021a91906119fb565b60405180910390f35b61023d600480360381019061023891906114b3565b610628565b005b610259600480360381019061025491906113ff565b6106b2565b6040516102669190611bb8565b60405180910390f35b6102776106fb565b005b610281610783565b60405161028e91906119e0565b60405180910390f35b61029f6107ac565b6040516102ac9190611a16565b60405180910390f35b6102cf60048036038101906102ca91906114b3565b61083e565b005b6102eb60048036038101906102e691906114b3565b6108c8565b6040516102f891906119fb565b60405180910390f35b61031b600480360381019061031691906114b3565b6109b3565b60405161032891906119fb565b60405180910390f35b6103396109d1565b60405161034691906119e0565b60405180910390f35b61036960048036038101906103649190611428565b6109f7565b6040516103769190611bb8565b60405180910390f35b610399600480360381019061039491906113ff565b610a7e565b005b6060600480546103aa90611d1c565b80601f01602080910402602001604051908101604052809291908181526020018280546103d690611d1c565b80156104235780601f106103f857610100808354040283529160200191610423565b820191906000526020600020905b81548152906001019060200180831161040657829003601f168201915b5050505050905090565b600061044161043a610b76565b8484610b7e565b6001905092915050565b600660009054906101000a900473ffffffffffffffffffffffffffffffffffffffff1681565b6000600354905090565b6000610488848484610d49565b6000600260008673ffffffffffffffffffffffffffffffffffffffff1673ffffffffffffffffffffffffffffffffffffffff16815260200190815260200160002060006104d3610b76565b73ffffffffffffffffffffffffffffffffffffffff1673ffffffffffffffffffffffffffffffffffffffff16815260200190815260200160002054905082811015610553576040517f08c379a000000000000000000000000000000000000000000000000000000000815260040161054a90611ad8565b60405180910390fd5b6105678561055f610b76565b858403610b7e565b60019150509392505050565b60006012905090565b600061061e610589610b76565b848460026000610597610b76565b73ffffffffffffffffffffffffffffffffffffffff1673ffffffffffffffffffffffffffffffffffffffff16815260200190815260200160002060008873ffffffffffffffffffffffffffffffffffffffff1673ffffffffffffffffffffffffffffffffffffffff168152602001908152602001600020546106199190611c0a565b610b7e565b6001905092915050565b610630610b76565b73ffffffffffffffffffffffffffffffffffffffff1661064e610783565b73ffffffffffffffffffffffffffffffffffffffff16146106a4576040517f08c379a000000000000000000000000000000000000000000000000000000000815260040161069b90611af8565b60405180910390fd5b6106ae8282610fcd565b5050565b6000600160008373ffffffffffffffffffffffffffffffffffffffff1673ffffffffffffffffffffffffffffffffffffffff168152602001908152602001600020549050919050565b610703610b76565b73ffffffffffffffffffffffffffffffffffffffff16610721610783565b73ffffffffffffffffffffffffffffffffffffffff1614610777576040517f08c379a000000000000000000000000000000000000000000000000000000000815260040161076e90611af8565b60405180910390fd5b610781600061112e565b565b60008060009054906101000a900473ffffffffffffffffffffffffffffffffffffffff16905090565b6060600580546107bb90611d1c565b80601f01602080910402602001604051908101604052809291908181526020018280546107e790611d1c565b80156108345780601f1061080957610100808354040283529160200191610834565b820191906000526020600020905b81548152906001019060200180831161081757829003601f168201915b5050505050905090565b610846610b76565b73ffffffffffffffffffffffffffffffffffffffff16610864610783565b73ffffffffffffffffffffffffffffffffffffffff16146108ba576040517f08c379a00000000000000000000000000000000000000000000000000000000081526004016108b190611af8565b60405180910390fd5b6108c482826111f2565b5050565b600080600260006108d7610b76565b73ffffffffffffffffffffffffffffffffffffffff1673ffffffffffffffffffffffffffffffffffffffff16815260200190815260200160002060008573ffffffffffffffffffffffffffffffffffffffff1673ffffffffffffffffffffffffffffffffffffffff16815260200190815260200160002054905082811015610994576040517f08c379a000000000000000000000000000000000000000000000000000000000815260040161098b90611b78565b60405180910390fd5b6109a861099f610b76565b85858403610b7e565b600191505092915050565b60006109c76109c0610b76565b8484610d49565b6001905092915050565b600760009054906101000a900473ffffffffffffffffffffffffffffffffffffffff1681565b6000600260008473ffffffffffffffffffffffffffffffffffffffff1673ffffffffffffffffffffffffffffffffffffffff16815260200190815260200160002060008373ffffffffffffffffffffffffffffffffffffffff1673ffffffffffffffffffffffffffffffffffffffff16815260200190815260200160002054905092915050565b610a86610b76565b73ffffffffffffffffffffffffffffffffffffffff16610aa4610783565b73ffffffffffffffffffffffffffffffffffffffff1614610afa576040517f08c379a0000000000000000000000000000000000000000000000000000000008152600401610af190611af8565b60405180910390fd5b600073ffffffffffffffffffffffffffffffffffffffff168173ffffffffffffffffffffffffffffffffffffffff161415610b6a576040517f08c379a0000000000000000000000000000000000000000000000000000000008152600401610b6190611a78565b60405180910390fd5b610b738161112e565b50565b600033905090565b600073ffffffffffffffffffffffffffffffffffffffff168373ffffffffffffffffffffffffffffffffffffffff161415610bee576040517f08c379a0000000000000000000000000000000000000000000000000000000008152600401610be590611b58565b60405180910390fd5b600073ffffffffffffffffffffffffffffffffffffffff168273ffffffffffffffffffffffffffffffffffffffff161415610c5e576040517f08c379a0000000000000000000000000000000000000000000000000000000008152600401610c5590611a98565b60405180910390fd5b80600260008573ffffffffffffffffffffffffffffffffffffffff1673ffffffffffffffffffffffffffffffffffffffff16815260200190815260200160002060008473ffffffffffffffffffffffffffffffffffffffff1673ffffffffffffffffffffffffffffffffffffffff168152602001908152602001600020819055508173ffffffffffffffffffffffffffffffffffffffff168373ffffffffffffffffffffffffffffffffffffffff167f8c5be1e5ebec7d5bd14f71427d1e84f3dd0314c0f7b2291e5b200ac8c7c3b92583604051610d3c9190611bb8565b60405180910390a3505050565b600073ffffffffffffffffffffffffffffffffffffffff168373ffffffffffffffffffffffffffffffffffffffff161415610db9576040517f08c379a0000000000000000000000000000000000000000000000000000000008152600401610db090611b38565b60405180910390fd5b600073ffffffffffffffffffffffffffffffffffffffff168273ffffffffffffffffffffffffffffffffffffffff161415610e29576040517f08c379a0000000000000000000000000000000000000000000000000000000008152600401610e2090611a38565b60405180910390fd5b610e348383836113cb565b6000600160008573ffffffffffffffffffffffffffffffffffffffff1673ffffffffffffffffffffffffffffffffffffffff16815260200190815260200160002054905081811015610ebb576040517f08c379a0000000000000000000000000000000000000000000000000000000008152600401610eb290611ab8565b60405180910390fd5b818103600160008673ffffffffffffffffffffffffffffffffffffffff1673ffffffffffffffffffffffffffffffffffffffff1681526020019081526020016000208190555081600160008573ffffffffffffffffffffffffffffffffffffffff1673ffffffffffffffffffffffffffffffffffffffff1681526020019081526020016000206000828254610f509190611c0a565b925050819055508273ffffffffffffffffffffffffffffffffffffffff168473ffffffffffffffffffffffffffffffffffffffff167fddf252ad1be2c89b69c2b068fc378daa952ba7f163c4a11628f55a4df523b3ef84604051610fb49190611bb8565b60405180910390a3610fc78484846113d0565b50505050565b600073ffffffffffffffffffffffffffffffffffffffff168273ffffffffffffffffffffffffffffffffffffffff16141561103d576040517f08c379a000000000000000000000000000000000000000000000000000000000815260040161103490611b98565b60405180910390fd5b611049600083836113cb565b806003600082825461105b9190611c0a565b9250508190555080600160008473ffffffffffffffffffffffffffffffffffffffff1673ffffffffffffffffffffffffffffffffffffffff16815260200190815260200160002060008282546110b19190611c0a565b925050819055508173ffffffffffffffffffffffffffffffffffffffff16600073ffffffffffffffffffffffffffffffffffffffff167fddf252ad1be2c89b69c2b068fc378daa952ba7f163c4a11628f55a4df523b3ef836040516111169190611bb8565b60405180910390a361112a600083836113d0565b5050565b60008060009054906101000a900473ffffffffffffffffffffffffffffffffffffffff169050816000806101000a81548173ffffffffffffffffffffffffffffffffffffffff021916908373ffffffffffffffffffffffffffffffffffffffff1602179055508173ffffffffffffffffffffffffffffffffffffffff168173ffffffffffffffffffffffffffffffffffffffff167f8be0079c531659141344cd1fd0a4f28419497f9722a3daafe3b4186f6b6457e060405160405180910390a35050565b600073ffffffffffffffffffffffffffffffffffffffff168273ffffffffffffffffffffffffffffffffffffffff161415611262576040517f08c379a000000000000000000000000000000000000000000000000000000000815260040161125990611b18565b60405180910390fd5b61126e826000836113cb565b6000600160008473ffffffffffffffffffffffffffffffffffffffff1673ffffffffffffffffffffffffffffffffffffffff168152602001908152602001600020549050818110156112f5576040517f08c379a00000000000000000000000000000000000000000000000000000000081526004016112ec90611a58565b60405180910390fd5b818103600160008573ffffffffffffffffffffffffffffffffffffffff1673ffffffffffffffffffffffffffffffffffffffff16815260200190815260200160002081905550816003600082825461134d9190611c60565b92505081905550600073ffffffffffffffffffffffffffffffffffffffff168373ffffffffffffffffffffffffffffffffffffffff167fddf252ad1be2c89b69c2b068fc378daa952ba7f163c4a11628f55a4df523b3ef846040516113b29190611bb8565b60405180910390a36113c6836000846113d0565b505050565b505050565b505050565b6000813590506113e481611dbd565b92915050565b6000813590506113f981611dd4565b92915050565b60006020828403121561141157600080fd5b600061141f848285016113d5565b91505092915050565b6000806040838503121561143b57600080fd5b6000611449858286016113d5565b925050602061145a858286016113d5565b9150509250929050565b60008060006060848603121561147957600080fd5b6000611487868287016113d5565b9350506020611498868287016113d5565b92505060406114a9868287016113ea565b9150509250925092565b600080604083850312156114c657600080fd5b60006114d4858286016113d5565b92505060206114e5858286016113ea565b9150509250929050565b6114f881611c94565b82525050565b61150781611ca6565b82525050565b600061151882611bee565b6115228185611bf9565b9350611532818560208601611ce9565b61153b81611dac565b840191505092915050565b6000611553602383611bf9565b91507f45524332303a207472616e7366657220746f20746865207a65726f206164647260008301527f65737300000000000000000000000000000000000000000000000000000000006020830152604082019050919050565b60006115b9602283611bf9565b91507f45524332303a206275726e20616d6f756e7420657863656564732062616c616e60008301527f63650000000000000000000000000000000000000000000000000000000000006020830152604082019050919050565b600061161f602683611bf9565b91507f4f776e61626c653a206e6577206f776e657220697320746865207a65726f206160008301527f64647265737300000000000000000000000000000000000000000000000000006020830152604082019050919050565b6000611685602283611bf9565b91507f45524332303a20617070726f766520746f20746865207a65726f20616464726560008301527f73730000000000000000000000000000000000000000000000000000000000006020830152604082019050919050565b60006116eb602683611bf9565b91507f45524332303a207472616e7366657220616d6f756e742065786365656473206260008301527f616c616e636500000000000000000000000000000000000000000000000000006020830152604082019050919050565b6000611751602883611bf9565b91507f45524332303a207472616e7366657220616d6f756e742065786365656473206160008301527f6c6c6f77616e63650000000000000000000000000000000000000000000000006020830152604082019050919050565b60006117b7602083611bf9565b91507f4f776e61626c653a2063616c6c6572206973206e6f7420746865206f776e65726000830152602082019050919050565b60006117f7602183611bf9565b91507f45524332303a206275726e2066726f6d20746865207a65726f2061646472657360008301527f73000000000000000000000000000000000000000000000000000000000000006020830152604082019050919050565b600061185d602583611bf9565b91507f45524332303a207472616e736665722066726f6d20746865207a65726f20616460008301527f64726573730000000000000000000000000000000000000000000000000000006020830152604082019050919050565b60006118c3602483611bf9565b91507f45524332303a20617070726f76652066726f6d20746865207a65726f2061646460008301527f72657373000000000000000000000000000000000000000000000000000000006020830152604082019050919050565b6000611929602583611bf9565b91507f45524332303a2064656372656173656420616c6c6f77616e63652062656c6f7760008301527f207a65726f0000000000000000000000000000000000000000000000000000006020830152604082019050919050565b600061198f601f83611bf9565b91507f45524332303a206d696e7420746f20746865207a65726f2061646472657373006000830152602082019050919050565b6119cb81611cd2565b82525050565b6119da81611cdc565b82525050565b60006020820190506119f560008301846114ef565b92915050565b6000602082019050611a1060008301846114fe565b92915050565b60006020820190508181036000830152611a30818461150d565b905092915050565b60006020820190508181036000830152611a5181611546565b9050919050565b60006020820190508181036000830152611a71816115ac565b9050919050565b60006020820190508181036000830152611a9181611612565b9050919050565b60006020820190508181036000830152611ab181611678565b9050919050565b60006020820190508181036000830152611ad1816116de565b9050919050565b60006020820190508181036000830152611af181611744565b9050919050565b60006020820190508181036000830152611b11816117aa565b9050919050565b60006020820190508181036000830152611b31816117ea565b9050919050565b60006020820190508181036000830152611b5181611850565b9050919050565b60006020820190508181036000830152611b71816118b6565b9050919050565b60006020820190508181036000830152611b918161191c565b9050919050565b60006020820190508181036000830152611bb181611982565b9050919050565b6000602082019050611bcd60008301846119c2565b92915050565b6000602082019050611be860008301846119d1565b92915050565b600081519050919050565b600082825260208201905092915050565b6000611c1582611cd2565b9150611c2083611cd2565b9250827fffffffffffffffffffffffffffffffffffffffffffffffffffffffffffffffff03821115611c5557611c54611d4e565b5b828201905092915050565b6000611c6b82611cd2565b9150611c7683611cd2565b925082821015611c8957611c88611d4e565b5b828203905092915050565b6000611c9f82611cb2565b9050919050565b60008115159050919050565b600073ffffffffffffffffffffffffffffffffffffffff82169050919050565b6000819050919050565b600060ff82169050919050565b60005b83811015611d07578082015181840152602081019050611cec565b83811115611d16576000848401525b50505050565b60006002820490506001821680611d3457607f821691505b60208210811415611d4857611d47611d7d565b5b50919050565b7f4e487b7100000000000000000000000000000000000000000000000000000000600052601160045260246000fd5b7f4e487b7100000000000000000000000000000000000000000000000000000000600052602260045260246000fd5b6000601f19601f8301169050919050565b611dc681611c94565b8114611dd157600080fd5b50565b611ddd81611cd2565b8114611de857600080fd5b5056fea2646970667358221220b04b450acdda267953265600d9897d2d0a8cb4ab9980beb21042ce343ad383cd64736f6c63430008000033",
  "linkReferences": {},
  "deployedLinkReferences": {}
}