{
  "_format": "hh-sol-artifact-1",
  "contractName": "TestingToken",
  "sourceName": "contracts/TestingToken.sol",
  "abi": [
    {
      "inputs": [
        {
          "internalType": "string",
          "name": "name",
          "type": "string"
        },
        {
          "internalType": "string",
          "name": "symbol",
          "type": "string"
        },
        {
          "internalType": "uint256",
          "name": "initialSupply",
          "type": "uint256"
        }
      ],
      "stateMutability": "nonpayable",
      "type": "constructor"
    },
    {
      "anonymous": false,
      "inputs": [
        {
          "indexed": true,
          "internalType": "address",
          "name": "owner",
          "type": "address"
        },
        {
          "indexed": true,
          "internalType": "address",
          "name": "spender",
          "type": "address"
        },
        {
          "indexed": false,
          "internalType": "uint256",
          "name": "value",
          "type": "uint256"
        }
      ],
      "name": "Approval",
      "type": "event"
    },
    {
      "anonymous": false,
      "inputs": [
        {
          "indexed": true,
          "internalType": "address",
          "name": "from",
          "type": "address"
        },
        {
          "indexed": true,
          "internalType": "address",
          "name": "to",
          "type": "address"
        },
        {
          "indexed": false,
          "internalType": "uint256",
          "name": "value",
          "type": "uint256"
        }
      ],
      "name": "Transfer",
      "type": "event"
    },
    {
      "inputs": [
        {
          "internalType": "address",
          "name": "owner",
          "type": "address"
        },
        {
          "internalType": "address",
          "name": "spender",
          "type": "address"
        }
      ],
      "name": "allowance",
      "outputs": [
        {
          "internalType": "uint256",
          "name": "",
          "type": "uint256"
        }
      ],
      "stateMutability": "view",
      "type": "function"
    },
    {
      "inputs": [
        {
          "internalType": "address",
          "name": "spender",
          "type": "address"
        },
        {
          "internalType": "uint256",
          "name": "amount",
          "type": "uint256"
        }
      ],
      "name": "approve",
      "outputs": [
        {
          "internalType": "bool",
          "name": "",
          "type": "bool"
        }
      ],
      "stateMutability": "nonpayable",
      "type": "function"
    },
    {
      "inputs": [
        {
          "internalType": "address",
          "name": "account",
          "type": "address"
        }
      ],
      "name": "balanceOf",
      "outputs": [
        {
          "internalType": "uint256",
          "name": "",
          "type": "uint256"
        }
      ],
      "stateMutability": "view",
      "type": "function"
    },
    {
      "inputs": [],
      "name": "decimals",
      "outputs": [
        {
          "internalType": "uint8",
          "name": "",
          "type": "uint8"
        }
      ],
      "stateMutability": "view",
      "type": "function"
    },
    {
      "inputs": [
        {
          "internalType": "address",
          "name": "spender",
          "type": "address"
        },
        {
          "internalType": "uint256",
          "name": "subtractedValue",
          "type": "uint256"
        }
      ],
      "name": "decreaseAllowance",
      "outputs": [
        {
          "internalType": "bool",
          "name": "",
          "type": "bool"
        }
      ],
      "stateMutability": "nonpayable",
      "type": "function"
    },
    {
      "inputs": [],
      "name": "getBalance",
      "outputs": [
        {
          "internalType": "uint256",
          "name": "",
          "type": "uint256"
        }
      ],
      "stateMutability": "view",
      "type": "function"
    },
    {
      "inputs": [
        {
          "internalType": "address",
          "name": "spender",
          "type": "address"
        },
        {
          "internalType": "uint256",
          "name": "addedValue",
          "type": "uint256"
        }
      ],
      "name": "increaseAllowance",
      "outputs": [
        {
          "internalType": "bool",
          "name": "",
          "type": "bool"
        }
      ],
      "stateMutability": "nonpayable",
      "type": "function"
    },
    {
      "inputs": [],
      "name": "mint",
      "outputs": [
        {
          "internalType": "bool",
          "name": "",
          "type": "bool"
        }
      ],
      "stateMutability": "nonpayable",
      "type": "function"
    },
    {
      "inputs": [],
      "name": "name",
      "outputs": [
        {
          "internalType": "string",
          "name": "",
          "type": "string"
        }
      ],
      "stateMutability": "view",
      "type": "function"
    },
    {
      "inputs": [
        {
          "internalType": "address",
          "name": "sender",
          "type": "address"
        },
        {
          "internalType": "uint256",
          "name": "supply",
          "type": "uint256"
        }
      ],
      "name": "sendToken",
      "outputs": [],
      "stateMutability": "nonpayable",
      "type": "function"
    },
    {
      "inputs": [],
      "name": "symbol",
      "outputs": [
        {
          "internalType": "string",
          "name": "",
          "type": "string"
        }
      ],
      "stateMutability": "view",
      "type": "function"
    },
    {
      "inputs": [],
      "name": "totalSupply",
      "outputs": [
        {
          "internalType": "uint256",
          "name": "",
          "type": "uint256"
        }
      ],
      "stateMutability": "view",
      "type": "function"
    },
    {
      "inputs": [
        {
          "internalType": "address",
          "name": "recipient",
          "type": "address"
        },
        {
          "internalType": "uint256",
          "name": "amount",
          "type": "uint256"
        }
      ],
      "name": "transfer",
      "outputs": [
        {
          "internalType": "bool",
          "name": "",
          "type": "bool"
        }
      ],
      "stateMutability": "nonpayable",
      "type": "function"
    },
    {
      "inputs": [
        {
          "internalType": "address",
          "name": "sender",
          "type": "address"
        },
        {
          "internalType": "address",
          "name": "recipient",
          "type": "address"
        },
        {
          "internalType": "uint256",
          "name": "amount",
          "type": "uint256"
        }
      ],
      "name": "transferFrom",
      "outputs": [
        {
          "internalType": "bool",
          "name": "",
          "type": "bool"
        }
      ],
      "stateMutability": "nonpayable",
      "type": "function"
    }
  ],
  "bytecode": "0x60806040523480156200001157600080fd5b5060405162001fb638038062001fb68339818101604052810190620000379190620005b8565b82828160039080519060200190620000519291906200047f565b5080600490805190602001906200006a9291906200047f565b5050506200007f3382620000ab60201b60201c565b620000a13362000095336200022460201b60201c565b6200026c60201b60201c565b50505050620009d8565b600073ffffffffffffffffffffffffffffffffffffffff168273ffffffffffffffffffffffffffffffffffffffff1614156200011e576040517f08c379a00000000000000000000000000000000000000000000000000000000081526004016200011590620007a7565b60405180910390fd5b62000132600083836200029a60201b60201c565b80600260008282546200014691906200085e565b92505081905550806000808473ffffffffffffffffffffffffffffffffffffffff1673ffffffffffffffffffffffffffffffffffffffff16815260200190815260200160002060008282546200019d91906200085e565b925050819055508173ffffffffffffffffffffffffffffffffffffffff16600073ffffffffffffffffffffffffffffffffffffffff167fddf252ad1be2c89b69c2b068fc378daa952ba7f163c4a11628f55a4df523b3ef83604051620002049190620007c9565b60405180910390a362000220600083836200029f60201b60201c565b5050565b60008060008373ffffffffffffffffffffffffffffffffffffffff1673ffffffffffffffffffffffffffffffffffffffff168152602001908152602001600020549050919050565b60006200029062000282620002a460201b60201c565b8484620002ac60201b60201c565b6001905092915050565b505050565b505050565b600033905090565b600073ffffffffffffffffffffffffffffffffffffffff168373ffffffffffffffffffffffffffffffffffffffff1614156200031f576040517f08c379a0000000000000000000000000000000000000000000000000000000008152600401620003169062000785565b60405180910390fd5b600073ffffffffffffffffffffffffffffffffffffffff168273ffffffffffffffffffffffffffffffffffffffff16141562000392576040517f08c379a0000000000000000000000000000000000000000000000000000000008152600401620003899062000763565b60405180910390fd5b80600160008573ffffffffffffffffffffffffffffffffffffffff1673ffffffffffffffffffffffffffffffffffffffff16815260200190815260200160002060008473ffffffffffffffffffffffffffffffffffffffff1673ffffffffffffffffffffffffffffffffffffffff168152602001908152602001600020819055508173ffffffffffffffffffffffffffffffffffffffff168373ffffffffffffffffffffffffffffffffffffffff167f8c5be1e5ebec7d5bd14f71427d1e84f3dd0314c0f7b2291e5b200ac8c7c3b92583604051620004729190620007c9565b60405180910390a3505050565b8280546200048d90620008fb565b90600052602060002090601f016020900481019282620004b15760008555620004fd565b82601f10620004cc57805160ff1916838001178555620004fd565b82800160010185558215620004fd579182015b82811115620004fc578251825591602001919060010190620004df565b5b5090506200050c919062000510565b5090565b5b808211156200052b57600081600090555060010162000511565b5090565b60006200054662000540846200081a565b620007e6565b9050828152602081018484840111156200055f57600080fd5b6200056c848285620008c5565b509392505050565b600082601f8301126200058657600080fd5b8151620005988482602086016200052f565b91505092915050565b600081519050620005b281620009be565b92915050565b600080600060608486031215620005ce57600080fd5b600084015167ffffffffffffffff811115620005e957600080fd5b620005f78682870162000574565b935050602084015167ffffffffffffffff8111156200061557600080fd5b620006238682870162000574565b92505060406200063686828701620005a1565b9150509250925092565b60006200064f6022836200084d565b91507f45524332303a20617070726f766520746f20746865207a65726f20616464726560008301527f73730000000000000000000000000000000000000000000000000000000000006020830152604082019050919050565b6000620006b76024836200084d565b91507f45524332303a20617070726f76652066726f6d20746865207a65726f2061646460008301527f72657373000000000000000000000000000000000000000000000000000000006020830152604082019050919050565b60006200071f601f836200084d565b91507f45524332303a206d696e7420746f20746865207a65726f2061646472657373006000830152602082019050919050565b6200075d81620008bb565b82525050565b600060208201905081810360008301526200077e8162000640565b9050919050565b60006020820190508181036000830152620007a081620006a8565b9050919050565b60006020820190508181036000830152620007c28162000710565b9050919050565b6000602082019050620007e0600083018462000752565b92915050565b6000604051905081810181811067ffffffffffffffff8211171562000810576200080f6200098f565b5b8060405250919050565b600067ffffffffffffffff8211156200083857620008376200098f565b5b601f19601f8301169050602081019050919050565b600082825260208201905092915050565b60006200086b82620008bb565b91506200087883620008bb565b9250827fffffffffffffffffffffffffffffffffffffffffffffffffffffffffffffffff03821115620008b057620008af62000931565b5b828201905092915050565b6000819050919050565b60005b83811015620008e5578082015181840152602081019050620008c8565b83811115620008f5576000848401525b50505050565b600060028204905060018216806200091457607f821691505b602082108114156200092b576200092a62000960565b5b50919050565b7f4e487b7100000000000000000000000000000000000000000000000000000000600052601160045260246000fd5b7f4e487b7100000000000000000000000000000000000000000000000000000000600052602260045260246000fd5b7f4e487b7100000000000000000000000000000000000000000000000000000000600052604160045260246000fd5b620009c981620008bb565b8114620009d557600080fd5b50565b6115ce80620009e86000396000f3fe608060405234801561001057600080fd5b50600436106100ea5760003560e01c8063395093511161008c57806395d89b411161006657806395d89b4114610261578063a457c2d71461027f578063a9059cbb146102af578063dd62ed3e146102df576100ea565b806339509351146101e5578063412664ae1461021557806370a0823114610231576100ea565b80631249c58b116100c85780631249c58b1461015b57806318160ddd1461017957806323b872dd14610197578063313ce567146101c7576100ea565b806306fdde03146100ef578063095ea7b31461010d57806312065fe01461013d575b600080fd5b6100f761030f565b6040516101049190611277565b60405180910390f35b61012760048036038101906101229190610eb0565b6103a1565b604051610134919061125c565b60405180910390f35b6101456103bf565b6040516101529190611399565b60405180910390f35b6101636103cf565b604051610170919061125c565b60405180910390f35b6101816103e4565b60405161018e9190611399565b60405180910390f35b6101b160048036038101906101ac9190610e61565b6103ee565b6040516101be919061125c565b60405180910390f35b6101cf6104e6565b6040516101dc91906113b4565b60405180910390f35b6101ff60048036038101906101fa9190610eb0565b6104ef565b60405161020c919061125c565b60405180910390f35b61022f600480360381019061022a9190610eb0565b61059b565b005b61024b60048036038101906102469190610dfc565b6105aa565b6040516102589190611399565b60405180910390f35b6102696105f2565b6040516102769190611277565b60405180910390f35b61029960048036038101906102949190610eb0565b610684565b6040516102a6919061125c565b60405180910390f35b6102c960048036038101906102c49190610eb0565b61076f565b6040516102d6919061125c565b60405180910390f35b6102f960048036038101906102f49190610e25565b61078d565b6040516103069190611399565b60405180910390f35b60606003805461031e906114c9565b80601f016020809104026020016040519081016040528092919081815260200182805461034a906114c9565b80156103975780601f1061036c57610100808354040283529160200191610397565b820191906000526020600020905b81548152906001019060200180831161037a57829003601f168201915b5050505050905090565b60006103b56103ae610814565b848461081c565b6001905092915050565b60006103ca336105aa565b905090565b60006103dd336103e86109e7565b6001905090565b6000600254905090565b60006103fb848484610b47565b6000600160008673ffffffffffffffffffffffffffffffffffffffff1673ffffffffffffffffffffffffffffffffffffffff1681526020019081526020016000206000610446610814565b73ffffffffffffffffffffffffffffffffffffffff1673ffffffffffffffffffffffffffffffffffffffff168152602001908152602001600020549050828110156104c6576040517f08c379a00000000000000000000000000000000000000000000000000000000081526004016104bd906112f9565b60405180910390fd5b6104da856104d2610814565b85840361081c565b60019150509392505050565b60006012905090565b60006105916104fc610814565b84846001600061050a610814565b73ffffffffffffffffffffffffffffffffffffffff1673ffffffffffffffffffffffffffffffffffffffff16815260200190815260200160002060008873ffffffffffffffffffffffffffffffffffffffff1673ffffffffffffffffffffffffffffffffffffffff1681526020019081526020016000205461058c91906113eb565b61081c565b6001905092915050565b6105a5828261076f565b505050565b60008060008373ffffffffffffffffffffffffffffffffffffffff1673ffffffffffffffffffffffffffffffffffffffff168152602001908152602001600020549050919050565b606060048054610601906114c9565b80601f016020809104026020016040519081016040528092919081815260200182805461062d906114c9565b801561067a5780601f1061064f5761010080835404028352916020019161067a565b820191906000526020600020905b81548152906001019060200180831161065d57829003601f168201915b5050505050905090565b60008060016000610693610814565b73ffffffffffffffffffffffffffffffffffffffff1673ffffffffffffffffffffffffffffffffffffffff16815260200190815260200160002060008573ffffffffffffffffffffffffffffffffffffffff1673ffffffffffffffffffffffffffffffffffffffff16815260200190815260200160002054905082811015610750576040517f08c379a000000000000000000000000000000000000000000000000000000000815260040161074790611359565b60405180910390fd5b61076461075b610814565b8585840361081c565b600191505092915050565b600061078361077c610814565b8484610b47565b6001905092915050565b6000600160008473ffffffffffffffffffffffffffffffffffffffff1673ffffffffffffffffffffffffffffffffffffffff16815260200190815260200160002060008373ffffffffffffffffffffffffffffffffffffffff1673ffffffffffffffffffffffffffffffffffffffff16815260200190815260200160002054905092915050565b600033905090565b600073ffffffffffffffffffffffffffffffffffffffff168373ffffffffffffffffffffffffffffffffffffffff16141561088c576040517f08c379a000000000000000000000000000000000000000000000000000000000815260040161088390611339565b60405180910390fd5b600073ffffffffffffffffffffffffffffffffffffffff168273ffffffffffffffffffffffffffffffffffffffff1614156108fc576040517f08c379a00000000000000000000000000000000000000000000000000000000081526004016108f3906112b9565b60405180910390fd5b80600160008573ffffffffffffffffffffffffffffffffffffffff1673ffffffffffffffffffffffffffffffffffffffff16815260200190815260200160002060008473ffffffffffffffffffffffffffffffffffffffff1673ffffffffffffffffffffffffffffffffffffffff168152602001908152602001600020819055508173ffffffffffffffffffffffffffffffffffffffff168373ffffffffffffffffffffffffffffffffffffffff167f8c5be1e5ebec7d5bd14f71427d1e84f3dd0314c0f7b2291e5b200ac8c7c3b925836040516109da9190611399565b60405180910390a3505050565b600073ffffffffffffffffffffffffffffffffffffffff168273ffffffffffffffffffffffffffffffffffffffff161415610a57576040517f08c379a0000000000000000000000000000000000000000000000000000000008152600401610a4e90611379565b60405180910390fd5b610a6360008383610dc8565b8060026000828254610a7591906113eb565b92505081905550806000808473ffffffffffffffffffffffffffffffffffffffff1673ffffffffffffffffffffffffffffffffffffffff1681526020019081526020016000206000828254610aca91906113eb565b925050819055508173ffffffffffffffffffffffffffffffffffffffff16600073ffffffffffffffffffffffffffffffffffffffff167fddf252ad1be2c89b69c2b068fc378daa952ba7f163c4a11628f55a4df523b3ef83604051610b2f9190611399565b60405180910390a3610b4360008383610dcd565b5050565b600073ffffffffffffffffffffffffffffffffffffffff168373ffffffffffffffffffffffffffffffffffffffff161415610bb7576040517f08c379a0000000000000000000000000000000000000000000000000000000008152600401610bae90611319565b60405180910390fd5b600073ffffffffffffffffffffffffffffffffffffffff168273ffffffffffffffffffffffffffffffffffffffff161415610c27576040517f08c379a0000000000000000000000000000000000000000000000000000000008152600401610c1e90611299565b60405180910390fd5b610c32838383610dc8565b60008060008573ffffffffffffffffffffffffffffffffffffffff1673ffffffffffffffffffffffffffffffffffffffff16815260200190815260200160002054905081811015610cb8576040517f08c379a0000000000000000000000000000000000000000000000000000000008152600401610caf906112d9565b60405180910390fd5b8181036000808673ffffffffffffffffffffffffffffffffffffffff1673ffffffffffffffffffffffffffffffffffffffff16815260200190815260200160002081905550816000808573ffffffffffffffffffffffffffffffffffffffff1673ffffffffffffffffffffffffffffffffffffffff1681526020019081526020016000206000828254610d4b91906113eb565b925050819055508273ffffffffffffffffffffffffffffffffffffffff168473ffffffffffffffffffffffffffffffffffffffff167fddf252ad1be2c89b69c2b068fc378daa952ba7f163c4a11628f55a4df523b3ef84604051610daf9190611399565b60405180910390a3610dc2848484610dcd565b50505050565b505050565b505050565b600081359050610de18161156a565b92915050565b600081359050610df681611581565b92915050565b600060208284031215610e0e57600080fd5b6000610e1c84828501610dd2565b91505092915050565b60008060408385031215610e3857600080fd5b6000610e4685828601610dd2565b9250506020610e5785828601610dd2565b9150509250929050565b600080600060608486031215610e7657600080fd5b6000610e8486828701610dd2565b9350506020610e9586828701610dd2565b9250506040610ea686828701610de7565b9150509250925092565b60008060408385031215610ec357600080fd5b6000610ed185828601610dd2565b9250506020610ee285828601610de7565b9150509250929050565b610ef581611453565b82525050565b6000610f06826113cf565b610f1081856113da565b9350610f20818560208601611496565b610f2981611559565b840191505092915050565b6000610f416023836113da565b91507f45524332303a207472616e7366657220746f20746865207a65726f206164647260008301527f65737300000000000000000000000000000000000000000000000000000000006020830152604082019050919050565b6000610fa76022836113da565b91507f45524332303a20617070726f766520746f20746865207a65726f20616464726560008301527f73730000000000000000000000000000000000000000000000000000000000006020830152604082019050919050565b600061100d6026836113da565b91507f45524332303a207472616e7366657220616d6f756e742065786365656473206260008301527f616c616e636500000000000000000000000000000000000000000000000000006020830152604082019050919050565b60006110736028836113da565b91507f45524332303a207472616e7366657220616d6f756e742065786365656473206160008301527f6c6c6f77616e63650000000000000000000000000000000000000000000000006020830152604082019050919050565b60006110d96025836113da565b91507f45524332303a207472616e736665722066726f6d20746865207a65726f20616460008301527f64726573730000000000000000000000000000000000000000000000000000006020830152604082019050919050565b600061113f6024836113da565b91507f45524332303a20617070726f76652066726f6d20746865207a65726f2061646460008301527f72657373000000000000000000000000000000000000000000000000000000006020830152604082019050919050565b60006111a56025836113da565b91507f45524332303a2064656372656173656420616c6c6f77616e63652062656c6f7760008301527f207a65726f0000000000000000000000000000000000000000000000000000006020830152604082019050919050565b600061120b601f836113da565b91507f45524332303a206d696e7420746f20746865207a65726f2061646472657373006000830152602082019050919050565b6112478161147f565b82525050565b61125681611489565b82525050565b60006020820190506112716000830184610eec565b92915050565b600060208201905081810360008301526112918184610efb565b905092915050565b600060208201905081810360008301526112b281610f34565b9050919050565b600060208201905081810360008301526112d281610f9a565b9050919050565b600060208201905081810360008301526112f281611000565b9050919050565b6000602082019050818103600083015261131281611066565b9050919050565b60006020820190508181036000830152611332816110cc565b9050919050565b6000602082019050818103600083015261135281611132565b9050919050565b6000602082019050818103600083015261137281611198565b9050919050565b60006020820190508181036000830152611392816111fe565b9050919050565b60006020820190506113ae600083018461123e565b92915050565b60006020820190506113c9600083018461124d565b92915050565b600081519050919050565b600082825260208201905092915050565b60006113f68261147f565b91506114018361147f565b9250827fffffffffffffffffffffffffffffffffffffffffffffffffffffffffffffffff03821115611436576114356114fb565b5b828201905092915050565b600061144c8261145f565b9050919050565b60008115159050919050565b600073ffffffffffffffffffffffffffffffffffffffff82169050919050565b6000819050919050565b600060ff82169050919050565b60005b838110156114b4578082015181840152602081019050611499565b838111156114c3576000848401525b50505050565b600060028204905060018216806114e157607f821691505b602082108114156114f5576114f461152a565b5b50919050565b7f4e487b7100000000000000000000000000000000000000000000000000000000600052601160045260246000fd5b7f4e487b7100000000000000000000000000000000000000000000000000000000600052602260045260246000fd5b6000601f19601f8301169050919050565b61157381611441565b811461157e57600080fd5b50565b61158a8161147f565b811461159557600080fd5b5056fea26469706673582212208199a0dc3cac756beaf4d4fa5a5f4651a982ce6b7f6402292c4520de4fbe0ebb64736f6c63430008000033",
  "linkReferences": {},
  "deployedLinkReferences": {}
}